:020000040800F2
:1000000000000120354400088D0500088F05000818
:100010009105000893050008950500080000000000
:10002000000000000000000000000000970500082C
:1000300099050008000000009B0500089D050008C8
:10004000854400088544000885440008854400086C
:10005000854400088544000885440008854400085C
:10006000854400088544000885440008854400084C
:10007000854400088544000885440008854400083C
:1000800085440008854400088544000800000000FD
:10009000000000000000000000000000854400088F
:1000A00085440008A5050008B5050008854400083A
:1000B00085440008854400088544000885440008FC
:1000C00085440008854400088544000885440008EC
:1000D00085440008854400088544000800000000AD
:1000E000854400088544000885440008000000009D
:1000F000000000000000000000000000854400082F
:10010000000000008544000885440008854400087C
:1001100000000000000000000000000000000000DF
:10012000854400088544000885440008854400088B
:1001300085440008000000000000000000000000EE
:10014000000000000000000000000000C5050008DD
:10015000854400088544000885440008854400085B
:1001600085440008854400080000000000000000ED
:10017000000000000000000000000000000000007F
:10018000000000008544000800000000000000009E
:04019000854400089A
:1001940053B94AB9002908BF00281CBF4FF0FF31EA
:1001A4004FF0FF3000F00CB8ADF1080C6DE904CE4F
:1001B40004F094F9DDF804E0DDE9022304B07047AB
:1001C400704700BF10B5054C237833B9044B13B105
:1001D4000448AFF300800123237010BDF800002011
:1001E400000000009C47000808B5034B1BB10349FD
:1001F4000348AFF3008008BD00000000FC000020AD
:100204009C47000808B500224FF40051014800F053
:10021400ABFB08BD0008024008B501224FF40051B1
:10022400014800F0A1FB08BD0008024008B5FFF733
:10023400E9FF4FF4FA7000F027FAFFF7EDFF4FF4EF
:10024400FA7000F021FA08BD38B50546002402E032
:10025400FFF7ECFF0134AC42FAD338BD30B58BB0B4
:1002640000240594069407940894099401941E4B61
:100274001A6B42F004021A631A6B02F00402019230
:10028400019A02941A6B42F080021A631A6B02F00C
:1002940080020292029A03941A6B42F001021A63DA
:1002A4001A6B02F001020392039A04941A6B42F04F
:1002B40002021A631B6B03F002030493049B0B4DAD
:1002C40022464FF40051284600F04EFB4FF40053F1
:1002D4000593012306930794089405A9284600F082
:1002E4005FFA0BB030BD00BF003802400008024086
:1002F40072B6FEE708B50A480A4B03600A4B43602E
:1003040000238360C3604FF48042026143618361D0
:10031400C361036200F06CFB00B908BDFFF7E8FF9E
:10032400A401002000540040A086010008B508483C
:10033400084B03600023436083604FF6FF72C26082
:100344000361836101F08EFF00B908BDFFF7D0FFA0
:100354005C0100200044014008B50848084B0360D4
:100364000023436083604FF6FF72C26003618361C0
:1003740001F078FF00B908BDFFF7BAFF14010020AF
:100384000048014000B595B03022002108A804F0CF
:1003940078F800230393049305930693079301933A
:1003A4001F4A116C41F080511164126C02F08052AA
:1003B4000192019A02931B4A136823F4404343F4C5
:1003C40000431360136803F440430293029B012328
:1003D40008934FF48033099302230E934FF4800261
:1003E4000F920F22109290221192129305231393CD
:1003F40008A801F011FB70B90F23039301230493A0
:10040400002105910691079103A801F055FD20B93B
:1004140015B05DF804FBFFF76BFFFFF769FF00BF42
:10042400003802400070004008B500F001F9FFF701
:10043400A9FFFFF713FFFFF75DFFFFF777FFFFF754
:100444008BFF03F0B5FD06E00320FFF7FDFE41F24C
:10045400883000F019F9642305224821024800F08D
:10046400A5FB0028F0D1F2E7A401002082B000210E
:1004740000910B4B5A6C42F480425A645A6C02F459
:1004840080420092009A01911A6C42F080521A64E0
:100494001B6C03F080530193019B02B0704700BFB3
:1004A4000038024030B589B00023039304930593C8
:1004B400069307930268144B9A4201D009B030BDE9
:1004C40000250195114C236B43F002032363236B36
:1004D40003F002030193019BC023039312230493AB
:1004E400032306930423079303A9094800F058F94A
:1004F4000295236C43F400132364236C03F4001368
:100504000293029BDAE700BF005400400038024027
:100514000004024000B583B00368184A934205D032
:10052400174A934216D003B05DF804FB00210091F2
:10053400144B5A6C42F400325A645B6C03F400337B
:100544000093009B0A46192000F0F8F8192000F0E7
:1005540005F9E8E7002101910A4B5A6C42F4802224
:100564005A645B6C03F480230193019B0A461A20AE
:1005740000F0E4F81A2000F0F1F8D4E70044014058
:100584000048014000380240FEE7FEE7FEE7FEE7D0
:10059400FEE770477047704708B500F063F808BD80
:1005A40008B5024801F053FD08BD00BF5C010020FE
:1005B40008B5024801F04BFD08BD00BF140100203E
:1005C40008B5024800F018FF08BD00BFFC10002069
:1005D400034AD2F8883043F47003C2F88830704775
:1005E40000ED00E010B504460E4B1A784FF47A7310
:1005F400B3FBF2F30C4A1068B0FBF3F000F0BCF864
:1006040068B90F2C01D901200AE0002221464FF0DD
:10061400FF3000F093F8054B1C60002000E001203F
:1006240010BD00BF040000200000002008000020CE
:1006340008B50B4B1A6842F400721A601A6842F447
:1006440080621A601A6842F480721A60032000F013
:1006540063F80F20FFF7C6FFFFF708FF002008BD6F
:10066400003C0240034A1168034B1B780B4413609F
:10067400704700BFF801002004000020014B1868F7
:10068400704700BFF801002038B50446FFF7F6FFB5
:100694000546B4F1FF3F02D0044B1B781C44FFF71E
:1006A400EDFF401BA042FAD338BD00BF0400002078
:1006B400002808DB0901C9B200F1604000F561407F
:1006C40080F80013704700F00F000901C9B2014B14
:1006D4001954704714ED00E000B500F00700C0F1B4
:1006E400070CBCF1040F28BF4FF0040C031D062BAC
:1006F4000FD9C31E4FF0FF3E0EFA0CF021EA0001A1
:1007040099400EFA03FE22EA0E0241EA02005DF865
:1007140004FB0023EEE70000074AD36823F4E063F8
:100724001B041B0C000200F4E060034343F0BF63AE
:1007340043F40033D360704700ED00E010B5044685
:10074400054BD868C0F30220FFF7C6FF01462046D8
:10075400FFF7AEFF10BD00BF00ED00E0002807DB8F
:1007640000F01F02400901239340024A42F820305E
:10077400704700BF00E100E00138B0F1807F0BD288
:100784004FF0E0235861054AF02182F8231000203D
:10079400986107221A6170470120704700ED00E05C
:1007A40000230F2B00F2D78070B582B065E0856816
:1007B4004FEA430E032404FA0EF425EA0405CC6838
:1007C40004FA0EF42C438460446824EA02044A6860
:1007D400C2F300129A40224342605CE0DC08083411
:1007E40050F8242003F00705AD004FF00F0E0EFA69
:1007F40005FE22EA0E0E0A69AA4042EA0E0240F8F9
:1008040024205CE0042200E0002202FA0EF22A43D3
:100814000234514D45F82420504A94686FEA0C0282
:1008240024EA0C054E6816F4801F01D04CEA040536
:100834004A4CA560E46802EA04054E6816F4001FF9
:1008440001D04CEA0405454CE560646802EA0405FD
:100854004E6816F4003F01D04CEA04053F4C656035
:10086400246822404D6815F4803F01D04CEA04020C
:100874003A4C226001330F2B6BD801229A400C684A
:1008840004EA020C32EA0404F4D14C6804F00304D0
:10089400013C012C8BD94A6802F00302032A09D0D7
:1008A400C4685D000322AA4024EA02048A68AA40BC
:1008B4002243C2604A6802F00302022A8ED004680E
:1008C4004FEA430E032202FA0EF224EA02044A68B3
:1008D40002F0030202FA0EF2224302604A6812F4A2
:1008E400403FC7D0002201921D4A546C44F4804416
:1008F4005464526C02F480420192019A9C08A51C33
:10090400154A52F8255003F0030E4FEA8E0E0F22BB
:1009140002FA0EF225EA0205124A90423FF474AF3D
:1009240002F5806290420ED002F5806290420CD0B3
:1009340002F5806290420AD002F5806290423FF450
:1009440061AF072261E701225FE702225DE703222C
:100954005BE702B070BD704700380140003C0140C5
:1009640000380240000002400AB181617047090466
:10097400816170472DE9F04107460D4690461E46B9
:1009840024E0FFF77BFE069BC01AB04200D8EEB904
:1009940000233B63202287F83D2087F83E303A6CE1
:1009A40042F020023A6487F83C3001201EE03B68A4
:1009B4009C6925EA040C1FFA8CFCBCFA8CFC4FEAF7
:1009C4005C1CE04511D1B6F1FF3FDAD1C5F3074312
:1009D400012BECD13B685B6925EA030C1FFA8CFC04
:1009E400BCFA8CFC4FEA5C1CEBE70020BDE8F0810C
:1009F400002800F0CC8070B5044690F83D30002B00
:100A040077D0242384F83D302268136823F001034F
:100A140013602268136843F4004313602268136868
:100A240023F40043136001F0FDFA62685A4B9A42C2
:100A340064D85A4B98428CBF00230123002B40F00A
:100A4400A8805749A1FB00318B0C25686A6822F005
:100A54003F0242EA91426A6021680A6A22F03F0238
:100A640066684D4DAE424FD8013313430B62216883
:100A7400CA6922F44F4222F0FF026568464B9D4248
:100A84004CD8431E6D00B3FBF5F3013340F6FC7004
:100A9400034278D0C3F30B031A43CA6121680B687D
:100AA40023F0C003E269206A024313430B60216808
:100AB4008B6823F4034323F0FF032269E0680243B5
:100AC40013438B602168CB6823F0FF036269A0693C
:100AD40002431343CB602268136843F0010313609D
:100AE40000202064202384F83D30206384F83E00F5
:100AF40070BD80F83C30FFF7D5FC82E7294B984263
:100B04008CBF0023012399E74FF4967505FB03F38B
:100B1400254DA5FB03539B090133A6E7A668BEB97F
:100B2400431E05EB450CB3FBFCF30133C3F30B038A
:100B3400B3FA83F35B0943BBC6B9431E05EB450512
:100B4400B3FBF5F30133C3F30B0343F40043A3E70F
:100B5400431E05EB850C0CEB8C0CB3FBFCF301334F
:100B6400C3F30B03B3FA83F35B09E4E7431E05EB1A
:100B7400850505EB8505B3FBF5F30133C3F30B03DF
:100B840043F4404388E7042386E7012384E70120F4
:100B940070470120ACE700BFA08601007F841E00DF
:100BA40083DE1B43FF083D00D34D62102DE9F04363
:100BB40085B00446884691461D46FFF75FFD94F8CC
:100BC4003D30DBB2202B03D0022005B0BDE8F0831A
:100BD400064600901923012257492046FFF7CAFE12
:100BE400002840F0A08094F83C30012B00F09D8058
:100BF400012384F83C3023681A6812F0010F03D1F2
:100C04001A6842F001021A602268136823F4006330
:100C14001360242384F83D3000272764474BE362A4
:100C240040E023681B6813F4807F02D04FF4007304
:100C340023640320C9E7A02384F83D302268536964
:100C4400C3F340035269C2F3802294F83DC05FFAB3
:100C54008CFCBCF1A00F09D043B93AB9FFF70EFDE3
:100C6400801BA842E7D8002DE8D1E4E7202384F8CC
:100C74003D3023685A6912F0020F31D11A6842F4E8
:100C840000721A6023686FF480625A610096192317
:100C9400012229492046FFF76DFE002849D101377A
:100CA4004F4538D22268136843F48073136000966A
:100CB4002B4600224FF001112046FFF75BFE00286F
:100CC400AFD1236808F0FE021A61FFF7D7FC06468D
:100CD40022685369C3F340035269C2F38022B4E724
:100CE4001A6842F400721A600023039323685A6955
:100CF40003929B690393039B0096192301220E49D7
:100D04002046FFF737FE90B9202384F83D300023B6
:100D140084F83C3059E7202384F83D30002384F8DC
:100D24003C30012051E702204FE702204DE701202B
:100D34004BE7012049E700BF020010000000FFFF5D
:100D44002DE9F04383B0D0F8008001EBC10300EB40
:100D54008303DA6D5B6D9A4254D807460C469B1A9E
:100D640001EBC10200EB8202926C9A4200D31A4654
:100D740002F103094FEA990915E006F103094FEA64
:100D8400990904EBC40507EB8505E96C3B7C0093EA
:100D9400B3B2E2B2404601F056FEEB6C3344EB646E
:100DA400EB6D3344EB6508EB441303F510639B6967
:100DB4009BB24B4512D304EBC40307EB8303DA6DF8
:100DC4005B6D9A420AD24BB19B1A04EBC40207EB47
:100DD4008202966C9E42D0D31E46CEE704EBC40337
:100DE40007EB83077A6DFB6D9A420FD804F00F046A
:100DF4000122A240D8F8343823EA0203C8F8343870
:100E0400002000E0012003B0BDE8F0830020FAE7F1
:100E140070B58AB0002800F090800546046890F808
:100E2400BD343BB3032385F8BD34E36B13F4807FF7
:100E340001D100232B61286801F028FB2C4654F8CB
:100E4400106BEC460FCCACE80F000FCCACE80F00F5
:100E540094E803008CE803002B1D0ECB304601F010
:100E640057FA044658B1022385F8BD3401242046BC
:100E74000AB070BD80F8BC3403F086F9D2E70021D3
:100E8400286801F0E8FF234616E003EBC30205EBF4
:100E94008202012182F83D1082F83C30A2F84430ED
:100EA400002182F840109164D16403EBC30205EB86
:100EB400820251650133DBB269688B42E5D316E0E7
:100EC40004EBC40305EB8303002283F87D2283F83B
:100ED4007C4283F88022C3F88822C3F88C2204EB76
:100EE400C40305EB8303C3F894220134E4B2A142A2
:100EF400E6D82C4654F8106BEC460FCCACE80F0047
:100F04000FCCACE80F0094E803008CE803002B1D21
:100F14000ECB304601F016FB044620B1022385F8BF
:100F2400BD340124A3E7002385F83830012385F874
:100F3400BD34286801F04EFF99E7012497E7026861
:100F440090F8BC34012B19D010B50446012380F865
:100F5400BC34836A012B09D0206801F091FA20681F
:100F640001F02AFF002084F8BC0410BD8369012B22
:100F7400F2D0936B43F480339363EDE70220704720
:100F840070B504460D460068066C00EB411303F58A
:100F940030639A682169012911D038498E4256D0AC
:100FA4003DB905EBC50304EB8303D3F89432002B5E
:100FB4005ED0E9B2204603F031F9002070BD12F092
:100FC400080F09D02E498E42F7D912F4004FF4D0FD
:100FD4004FF400429A60F0E712F0200F02D0202272
:100FE4009A60EAE712F0280FE7D125498E4206D924
:100FF40012F4004F03D04FF400429A60DDE705EB92
:10100400C50204EB8202D2F898121B69C3F31203DF
:10101400CB1AC2F89C327DB905EBC50204EB8202FF
:10102400D2F894226AB105EBC50204EB8202D2F82D
:101034008C121944C2F88C12E9B2204603F0EEF87F
:10104400BBE704F2C442012101F044FFF4E712F4C7
:10105400004F03D04FF400429A60AEE712F0200F25
:1010640001D020229A60E9B2204603F0D7F8A4E721
:1010740004F2C442002101F02DFF9AE70A31544FD3
:101084000A30544F38B5044603681D6C03EB411312
:10109400D3F8081B0E4A954207D903F5306311F4BF
:1010A400004F02D04FF400429A60204603F0AEF89D
:1010B400074B9D4202D92369012B01D0002038BD82
:1010C40004F2C4420121206801F004FFF6E700BFE6
:1010D4000A30544F90F8BC34012B0DD010B504469F
:1010E400012380F8BC3480F83810006801F054FE05
:1010F400002084F8BC0410BD0220704738B50546B2
:101104008C4611F0800F29D101F00F0E0EEBCE04A6
:10111400A40004F51E740444211D0EEBCE0E00EB56
:101124008E0E00208EF87D020CF00F0C81F800C0AA
:10113400CA600B714A780AB1A1F808C0022B1DD00D
:1011440095F8BC34012B1CD0012385F8BC342868E5
:1011540001F0D1FA002085F8BC0438BD01F00F007D
:1011640000EBC001890038312944043100EBC00090
:1011740005EB8000012480F83D40D5E700234B7146
:10118400DEE70220E9E710B504460A4611F0800FB5
:1011940020D101F00F0000EBC0039B0003F51E7388
:1011A4002344191D00EBC00004EB8000002380F8E9
:1011B4007D3202F00F020A7094F8BC34012B19D06E
:1011C400012384F8BC34206801F0E2FA002084F89A
:1011D400BC0410BD01F00F0000EBC0039B003833CA
:1011E4002344191D00EBC00004EB8000012380F8A8
:1011F4003D30DEE70220ECE710B501F00F0404EB0C
:10120400C401890001F51E710144043104EBC40CCE
:1012140000EB8C0CCCF88C22CCF894320023CCF864
:101224009C328CF87D328CF87C420369012B06D009
:1012340064B9DAB2006801F01BFB002010BD04EBB6
:10124400C40C00EB8C0CCCF89022F1E7DAB2006805
:1012540001F010FCF1E701F00F0101EBC10100EB1B
:101264008100D0F89C02704710B501F00F0404EB24
:10127400C401890038310144043104EBC40C00EB8F
:101284008C0CCCF84C20CCF854300023CCF85C30D7
:1012940001238CF83D308CF83C400369012B06D0C7
:1012A40064B9DAB2006801F0E3FA002010BD04EB7F
:1012B400C40C00EB8C0CCCF85020F1E7DAB20068D7
:1012C40001F0D8FBF1E738B501F00F05426895420B
:1012D40039D804460B4611F0800F1FD101EBC10130
:1012E400890001F51E710144043103EBC30300EBD3
:1012F4008303002283F87D2201238B700D7094F800
:10130400BC34012B21D0012384F8BC34206801F0C3
:10131400E8FC8DB1002084F8BC0438BD05EBC501A0
:10132400890038310144043105EBC50300EB830324
:10133400012283F83D20DFE704F2C442217C2068C7
:1013440001F0C8FDE6E70120E7E70220E5E701F048
:101354000F034268934231D810B5044611F0800F50
:101364001ED103EBC301890001F51E710144043150
:1013740003EBC30200EB8202002082F87D0200220C
:101384008A700B7094F8BC34012B19D0012384F8B3
:10139400BC34206801F0D2FC002084F8BC0410BDE9
:1013A40003EBC301890038310144043103EBC30268
:1013B40000EB8202012082F83D00E0E70120704743
:1013C4000220ECE708B511F0800F0CD101F00F01F9
:1013D40001EBC101890001F51E710144043100686B
:1013E40001F0D2FA08BD01F00F0101EBC10189003F
:1013F400383101440431F2E72DE9F04F83B004465B
:101404000568284601F023FD10B103B0BDE8F08F54
:101414000646206801F0ECFC0028F6D005F50067CC
:10142400BB68C3F30D23C4F8FC34206801F0E0FC6E
:1014340010F0020F04D02268536903F002035361D1
:10144400206801F0D5FC10F0100F15D022689369C4
:1014540023F010039361D5F8208008F00F0908F4F5
:10146400F013B3F5802F4CD0B3F5402F6FD0226822
:10147400936943F010039361206801F0B9FC10F400
:10148400002F76D1206801F0B3FC10F4802F40F0D7
:10149400E080206801F0ACFC0028C0F26381206881
:1014A40001F0A6FC10F4006F09D0BB6813F0010F23
:1014B40040F070812268536903F40063536120682B
:1014C40001F096FC10F4805F40F06881206801F020
:1014D4008FFC10F4005F40F0B581206801F088FCB7
:1014E40010F0080F40F0C681206801F081FC10F074
:1014F400800F00F0D981AB6923F08003AB61012632
:10150400C2E147F6F07318EA030FB0D04FEA181A95
:101514004FEAC903019309EBC90B04EB8B0BC8F326
:101524000A12DBF88C12284601F0B8FBDBF88C3287
:10153400CAF30A0A5344CBF88C32DBF89C32019A82
:101544004A4404EB82025344C2F89C328FE70822D7
:1015540004F2C441284601F0A1FB09EBC90304EBE2
:101564008303D3F89C22C8F30A184244C3F89C228C
:101574007DE7206801F040FC8046B14635E005EB8C
:1015840049130122C3F8082B49462046FFF7F8FC0B
:101594003CE005EB49130822C3F8082B49462046D2
:1015A400FFF770FD35E009EBC90304EB830393F8FF
:1015B4007F32012B41D005EB49130222C3F8082BDB
:1015C4001AF0200F04D005EB49132022C3F8082B8E
:1015D4001AF4005F05D005EB49134FF40052C3F829
:1015E400082B09F101094FEA5808B8F1000F3FF43C
:1015F40049AF18F0010FF4D05FFA89FB594620680F
:1016040001F00AFC824610F0010FB8D11AF0080F5D
:10161400BFD11AF0100F04D005EB49131022C3F800
:10162400082B1AF0020FCBD06B6913F0800FBAD0DD
:101634007B6843F480637B60B5E709EBC90304EB83
:101644008303002283F87F225946204602F034FEA9
:10165400B1E7206801F0D8FB8046B14625E0594641
:10166400204602F0E7FD1AF0080F04D005EB4913F9
:101674000822C3F808291AF0100F04D005EB491307
:101684001022C3F808291AF0400F04D005EB4913BF
:101694004022C3F808291AF0020F40D11AF0800F33
:1016A4005BD109F101094FEA5808B8F1000F3FF482
:1016B400F0AE18F0010FF4D05FFA89FB59462068A8
:1016C40001F0B3FB824610F0010FCCD009F00F02F9
:1016D400012101FA02F27B6B23EA02037B6305EB2F
:1016E4004913C3F8081923698B42B8D109EBC9031C
:1016F40004EB8303DA6C996C0A44DA64B9F1000FE1
:10170400ADD109EBC90304EB83035B6D002BA6D1B8
:1017140004F2C4420121206801F0DCFB9FE7494642
:10172400284600F0B9FE09EBC90304EB830393F8E0
:101734003F30012B05D005EB49130222C3F80829D9
:10174400ACE709EBC90304EB8303002283F83F20D1
:101754005946204602F0B6FDEDE749462046FFF71C
:10176400EFFA9EE77B6823F001037B6094F8F4347E
:10177400012B08D0204602F099FD2268536903F03A
:10178400004353618BE6002184F8F414204600F0F2
:1017940041F9F2E7204602F071FD8BE67B6823F005
:1017A40001037B601021206800F076FE1AE005EB4F
:1017B40046134FF67F31C3F80819D3F8002922F4F1
:1017C4000012C3F80029C3F8081BD3F8002B22F435
:1017D4000012C3F8002BD3F8002B42F00062C3F8C8
:1017E400002B01366368B342E1D8FB6943F001136F
:1017F400FB61236BDBB1D7F8843043F00B03C7F8EC
:1018040084307B6C43F00B037B64D5F8003823F4FD
:10181400FE63C5F8003804F2C442217C206801F05C
:1018240059FB2268536903F4805353614EE67B6984
:1018340043F4005343F02B037B613B6943F00B03F8
:101844003B61E2E7206801F037FB206800F042FFCB
:10185400E060266800F0E0FB0146227B304600F0A1
:101864009DFD204602F0F7FC2268536903F40053FF
:10187400536132E6204602F0E8FC2268536903F023
:101884000803536130E601366368B3420CD906EBB2
:10189400C60304EB830393F87F32012BF3D1F1B237
:1018A4002046FFF78FFDEEE7206801F0A1FA10F45F
:1018B400801F27D1206801F09BFA10F4001F5BD031
:1018C400012328E001366368B3421DD905EB4613B2
:1018D400D3F8002906EBC60304EB830393F84030E6
:1018E400012BEFD1002AEDDA06EBC60304EB8303E8
:1018F400012283F83F2066F07F01C9B22046FFF73A
:1019040061FDDFE70126DEE72268536903F48013F3
:101914005361CFE7013362689A4228D905EB431239
:10192400D2F8001B03EBC30204EB820292F880227C
:10193400012AEFD10029EDDA01F48031D4F8FC2436
:1019440002F001029142E5D103EBC30204EB8202EF
:10195400012182F87F12AA6942F08002AA616A69B1
:1019640012F0800FD6D17B6843F400737B60226849
:10197400536903F400135361206801F039FA10F03D
:10198400804F10D1206801F033FA10F0040F3FF4B7
:101994003CAD23685D6815F0040F0DD122685368CF
:1019A4002B43536031E5204602F092FC22685369D0
:1019B40003F080435361E5E7204602F08FFCEDE736
:1019C40010B40468606A31B940EA0240A0620020A1
:1019D4005DF8044B70478C46A36A00EB1340002368
:1019E40008E003F1400104EB8101496800EB114078
:1019F4000133DBB20CF1FF318B42F2D340EA0240F7
:101A04000CF13F0104EB81046060E0E70368596274
:101A14000020704770470000002800F0E08170B596
:101A240082B00446036813F0010F3BD09F4B9B68C0
:101A340003F00C03042B2CD09C4B9B6803F00C0389
:101A4400082B21D06368B3F5803F4FD0B3F5A02FA6
:101A540052D0964B1A6822F480321A601A6822F423
:101A640080221A606368002B50D0FEF707FE0546FB
:101A74008E4B1B6813F4003F14D1FEF7FFFD401B8F
:101A84006428F5D90320B1E1884B5B6813F4800F17
:101A9400D8D0864B1B6813F4003F03D06368002B37
:101AA40000F09F81236813F0020F54D07F4B9B6892
:101AB40013F00C0F3ED07D4B9B6803F00C03082BF6
:101AC40033D0E368002B68D0794B01221A60FEF70B
:101AD400D5FD0546754B1B6813F0020F54D1FEF774
:101AE400CDFD401B0228F5D903207FE16F4A13681E
:101AF40043F480331360B5E76C4B1A6842F48022D8
:101B04001A601A6842F480321A60ABE7FEF7B6FD39
:101B14000546664B1B6813F4003FC3D0FEF7AEFDC9
:101B2400401B6428F5D9032060E1604B5B6813F423
:101B3400800FC6D15D4B1B6813F0020F03D0E3681E
:101B4400012B40F05081594A136823F0F8032169AE
:101B540043EAC1031360236813F0080F42D063699A
:101B64006BB3534B0122C3F8802EFEF787FD054665
:101B74004E4B5B6F13F0020F34D1FEF77FFD401B19
:101B84000228F5D9032031E1484A136823F0F80309
:101B9400216943EAC1031360DDE7454B00221A6063
:101BA400FEF76CFD0546414B1B6813F0020FD2D0C3
:101BB400FEF764FD401B0228F5D9032016E13C4BD7
:101BC4000022C3F8802EFEF759FD0546374B5B6FA4
:101BD40013F0020F06D0FEF751FD401B0228F5D981
:101BE400032003E1236813F0040F77D02F4B1B6C01
:101BF40013F0805F33D1002301932C4B1A6C42F015
:101C040080521A641B6C03F080530193019B0125DD
:101C1400284B1B6813F4807F23D0A368012B34D096
:101C2400052B38D0214B1A6F22F001021A671A6F64
:101C340022F004021A67A368002B3DD0FEF71EFDB4
:101C440006461A4B1B6F13F0020F46D1FEF716FD22
:101C5400801B41F288339842F3D90320C6E0002563
:101C6400D6E7144A136843F480731360FEF706FD45
:101C74000646104B1B6813F4807FCED1FEF7FEFCA2
:101C8400801B0228F5D90320B0E0084A136F43F003
:101C940001031367CFE7054B1A6F42F004021A677A
:101CA4001A6F42F001021A67C5E700BF003802400C
:101CB4000000474200700040FEF7E0FC0646524B2D
:101CC4001B6F13F0020F08D0FEF7D8FC801B41F203
:101CD40088339842F3D9032088E0EDB9A369002B37
:101CE40000F08380484A926802F00C02082A51D01E
:101CF400022B17D0454B00221A66FEF7BFFC0446A0
:101D0400414B1B6813F0007F42D0FEF7B7FC001B69
:101D14000228F5D9032069E03B4A136C23F0805371
:101D24001364DBE7394B00221A66FEF7A7FC05466D
:101D3400354B1B6813F0007F06D0FEF79FFC401B59
:101D44000228F5D9032051E0E369226A1343626A49
:101D540043EA8213A26A5208013A43EA0243E26A5E
:101D640043EA0263284A5360284B01221A66FEF7AD
:101D740085FC0446244B1B6813F0007F06D1FEF754
:101D84007DFC001B0228F5D903202FE000202DE064
:101D940000202BE0012B2BD01B4B5B6803F480014C
:101DA400E269914226D103F03F02216A8A4223D19B
:101DB400616A47F6C0721A40B2EB811F1ED103F468
:101DC4004031A26A5208013AB1EB024F18D103F034
:101DD4007063E26AB3EB026F14D1002006E00120C5
:101DE4007047012002E0012000E0002002B070BD35
:101DF4000120FBE70120F9E70120F7E70120F5E7DF
:101E04000120F3E70120F1E70038024000004742D7
:101E140008B5264B9B6803F00C03042B41D0082B18
:101E240041D1224B5A6802F03F025B6813F4800FE1
:101E340012D01E4B5968C1F388111D480023A1FB21
:101E44000001FEF7A5F9194B5B68C3F301430133A5
:101E54005B00B0FBF3F008BD144B5868C0F3881066
:101E64004FEA401CBCEB000C6EEB0E0E4FEA8E13D7
:101E740043EA9C634FEA8C11B1EB0C0163EB0E0354
:101E8400DB0043EA5173C90011EB000C43F100037A
:101E9400990200234FEA8C2041EA9C51FEF778F91D
:101EA400D1E70348D7E70348D5E700BF003802402D
:101EB40040787D010024F400002800F09B8070B578
:101EC4000D4604464F4B1B6803F007038B4208D2B0
:101ED400CBB24C4A1370136803F007038B4240F0F3
:101EE4008B80236813F0020F17D013F0040F04D073
:101EF400454A936843F4E0539360236813F0080F52
:101F040004D0414A936843F4604393603E4A936823
:101F140023F0F003A1680B439360236813F0010FCF
:101F240032D06368012B21D09A1E012A25D9364A62
:101F3400126812F0020F61D033498A6822F003025A
:101F440013438B60FEF79AFB06462F4B9B6803F006
:101F54000C036268B3EB820F16D0FEF78FFB801B75
:101F640041F288339842F0D9032042E0264A1268AD
:101F740012F4003FE0D101203BE0234A126812F042
:101F8400007FD9D1012034E01E4B1B6803F0070306
:101F9400AB4207D9EAB21B4B1A701B6803F0070364
:101FA400AB422DD1236813F0040F06D0164A936870
:101FB40023F4E053E1680B439360236813F0080FA4
:101FC40007D0114A936823F46043216943EAC103AB
:101FD4009360FFF71DFF0C4B9B68C3F303130B4A7D
:101FE400D35CD8400A4B18600A4B1868FEF7FAFA1B
:101FF400002070BD012070470120FAE70120F8E7B6
:102004000120F6E7003C024000380240BC470008CB
:102014000000002008000020014B1868704700BF32
:102024000000002008B5FFF7F7FF044B9B68C3F3DB
:102034008223034AD35CD84008BD00BF0038024065
:10204400B44700087047704770477047704710B531
:10205400044603681A6912F0020F11D0DA6812F00C
:10206400020F0DD06FF002021A6101230377036897
:102074009B6913F0030F70D0FFF7E6FF002323776B
:1020840023681A6912F0040F12D0DA6812F0040FF0
:102094000ED06FF004021A610223237723689B6930
:1020A40013F4407F5FD02046FFF7CEFF0023237751
:1020B40023681A6912F0080F12D0DA6812F0080FB8
:1020C4000ED06FF008021A61042323772368DB69BA
:1020D40013F0030F4ED02046FFF7B6FF00232377FB
:1020E40023681A6912F0100F12D0DA6812F0100F78
:1020F4000ED06FF010021A61082323772368DB697E
:1021040013F4407F3DD02046FFF79EFF0023237742
:1021140023681A6912F0010F03D0DA6812F0010F74
:1021240036D123681A6912F0800F03D0DA6812F0EE
:10213400800F34D123681A6912F0400F03D0DA6893
:1021440012F0400F32D123681A6912F0200F03D025
:10215400DA6812F0200F30D110BDFFF774FF20466B
:10216400FFF773FF8AE72046FFF76DFF2046FFF76E
:102174006CFF9BE72046FFF766FF2046FFF765FFED
:10218400ACE72046FFF75FFF2046FFF75EFFBDE7A1
:102194006FF001021A612046FFF754FFC1E76FF0A8
:1021A40080021A61204600F08AF8C3E76FF040020B
:1021B4001A612046FFF74AFFC5E76FF020021A6153
:1021C400204600F07BF8C7E70368254A90420ED00A
:1021D400B0F1804F0BD0A2F57C42904207D002F5BB
:1021E4008062904203D002F58062904203D123F0D2
:1021F40070034A6813431A4A90421AD0B0F1804FD0
:1022040017D0A2F57C42904213D002F5806290422E
:102214000FD002F5806290420BD002F59A329042C0
:1022240007D002F58062904203D002F580629042AA
:1022340003D123F44073CA68134323F080034A692B
:10224400134303608B68C3620B688362044B984238
:1022540002D00123436170470B690363F9E700BFB0
:102264000000014040B310B5044690F83D30F3B18E
:10227400022384F83D30214651F8040BFFF7A4FFF4
:10228400012384F8463084F83E3084F83F3084F8E3
:10229400403084F8413084F8423084F8433084F884
:1022A400443084F8453084F83D30002010BD80F877
:1022B4003C30FEF72FF9DBE7012070477047704789
:1022C40082B000230193019B01330193019A0F4BC8
:1022D4009A4215D80369002BF5DA002301930369A8
:1022E40043F001030361019B01330193019A074BFE
:1022F4009A4208D8036913F0010FF4D1002000E0DA
:10230400032002B070470320FBE700BF400D030029
:1023140084B010B5044603A880E80E00089B012B86
:102324001FD1A36B23F48033A363E36823F48403F2
:1023340023F04003E360E36823F44013E3600F9B5E
:10234400012B09D02046FFF7BBFF069B012B1BD0B6
:10235400BDE8104004B07047E36843F48013E360C1
:10236400F0E7E36843F04003E3602046FFF7A8FF8B
:102374000C9B23B9A36B43F48033A363E5E7A36BFE
:1023840023F48033A363E0E7A36843F00603A36068
:10239400A36843F02003A360DAE70000022A0AD00E
:1023A4000922C36823F47053C360C36843EA8223D9
:1023B400C36000207047234B0B44234A93422FD918
:1023C400224B0B44224A93422CD9A1F57403A3F562
:1023D4001053204A934227D9A1F18373A3F5E7430D
:1023E4001D4A934222D31D4B0B441D4A93421FD9CD
:1023F4001C4B0B441C4A93421CD31C4B0B441C4ADD
:10240400934219D3A1F1B773A3F55853194A9342D0
:1024140014D3194B0B44194A934211D20722C0E733
:102424000F22BEE70E22BCE70D22BAE70C22B8E762
:102434000B22B6E70A22B4E70922B2E70822B0E782
:102444000622AEE7405327FFFF340C00401E1BFF5B
:102454003F420F007F4F120020D6130060B6E5FE06
:102464005FE3160000D3CEFE40771B00C05BB3FED3
:10247400C091210020753800E05459FEE09C4100D1
:10248400836843F00103836000207047836823F06E
:10249400010383600020704782B000230193019BF5
:1024A40001330193019A0F4B9A4215D80369002B0B
:1024B400F5DA00230193890141F020010161019BB8
:1024C40001330193019A074B9A4208D8036913F028
:1024D400200FF4D1002000E0032002B07047032055
:1024E400FBE700BF400D030082B000230193019B72
:1024F40001330193019A0E4B9A4213D80369002BBE
:10250400F5DA0023019310230361019B0133019346
:10251400019A074B9A4208D8036913F0100FF4D1BB
:10252400002000E0032002B070470320FBE700BF57
:10253400400D0300D0F800381943C0F800180020FB
:102544007047000084B02DE9F041044607A880E8F4
:102554000E00002306E003F1400204EB8202002196
:10256400516001330E2BF6D9119F27BBD4F80438E0
:1025740043F00203C4F80438A36B43F40013A363C9
:10258400A36B23F40023A363A36B23F48023A3632B
:102594000023C4F8003E04F50065D4F80038C4F8FC
:1025A40000380C9B012B14D1099B6BB900212046E8
:1025B400FFF7C0FF11E0A36B23F40013A363A36B25
:1025C40043F40023A363E3E701212046FFF7B2FFAE
:1025D40003E003212046FFF7ADFF10212046FFF75B
:1025E4005BFF804608B14FF001082046FFF77CFFEF
:1025F40008B14FF0010800232B616B61EB610AE025
:10260400C3B94FF00060C2F8000900220A614FF616
:102614007F328A6001330799994210D904EB43123F
:1026240002F51061D2F800090028E9DB0020C2F8A5
:102634000009EAE74FF09040C2F80009E5E70023FB
:102644000AE0C3B14FF0904CC2F800CB0022026103
:102654004FF67F3282600133994211D904EB431261
:1026640002F53060D2F8006B002EEADB4FF0000C6C
:10267400C2F800CBEAE74FF0006CC2F800CBE5E704
:102684002B6923F480732B610023A3616FF08043D3
:1026940063610A9B1BB9A36943F01003A361A26998
:1026A4000B4B1343A3610D9B1BB1A36943F00803B8
:1026B400A361012F04D04046BDE8F04104B0704747
:1026C400A36943F0804343F00403A361F3E700BF2D
:1026D40000383C80D0F8083803F00603022B04D0FD
:1026E400062B04D02BB9002070470220704702202B
:1026F40070470F20704710B591F800C04B78012B3C
:1027040023D000F5006ED0F81C380CF00F04012221
:10271400A24043EA0243C0F81C3800EB4C10D0F846
:10272400003B13F4004F0ED1D0F8003BCA68C2F34B
:102734000A02097942EA8142134343F0805343F485
:102744000043C0F8003B002010BDD0F81C280CF05A
:102754000F0E03FA0EF39BB21343C0F81C3800EBC0
:102764004C10D0F8003913F4004FECD1D0F80039F4
:10277400CA68C2F30A02097942EA814242EA8C52E7
:10278400134343F0805343F40043C0F80039DAE7BD
:1027940030B40B784A78012A26D000EB4313D3F8DF
:1027A400002B002A52DBD0F83C480A7802F00F02D2
:1027B4004FF0010C0CFA02F224EA0242C0F83C2861
:1027C400D0F81C28097801F00F010CFA01FC22EA68
:1027D4000C42C0F81C28D3F8001B234A0A40C3F853
:1027E400002B002030BC704700EB4313D3F80029C2
:1027F400002A1EDBD0F83C580A7802F00F020124AC
:1028040004FA02F292B225EA0202C0F83C28D0F897
:102814001C28097801F00F018C40A4B222EA0402BA
:10282400C0F81C28D3F80019104A0A40C3F800293C
:10283400D7E7D3F8002942F00062C3F80029D3F89F
:10284400002942F08042C3F80029D3E7D3F8002BD3
:1028540042F00062C3F8002BD3F8002B42F0804210
:10286400C3F8002B9FE700BF0078F3EF007833EC48
:1028740070B40B784C78012C27D000EB431000F592
:1028840030631C696FF312041C611C696FF3DC4430
:102894001C618C690CB1CC688C61CC68CC611C69FE
:1028A40044F400241C611C69CD69C5F3120C44EA8C
:1028B4000C041C61012A62D0D0F8003B43F00443AD
:1028C400C0F8003B002070BC70478C695CBB00EB17
:1028D4004314D4F810596FF3DC45C4F81059D4F8F4
:1028E400105945F40025C4F81059D4F810596FF361
:1028F4001205C4F81059012A32D000EB4313D3F85F
:10290400002942F00442C3F800298B69002BD9D076
:10291400D0F83438097801F00F0101228A401343BA
:10292400C0F83438CEE700EB431404F5106425698D
:102934006FF31205256125696FF3DC452561CD68C8
:102944008E69AE4200D98D61256945F40025256163
:1029540025698E69C6F3120C45EA0C052561CAE7A0
:102964004A691AB100EB4311C1F8142900EB43136F
:10297400D3F8002942F00442C3F80029A2E70A6907
:10298400002A99D05A6197E710B483B00246002315
:102994000193487801280BD00B7802EB4313D3F84A
:1029A400000B00282DDB002003B05DF8044B7047BA
:1029B4000B7802EB4313D3F80049002C01DB002011
:1029C400F2E7D3F8004944F00064C3F800490B78F7
:1029D40002EB4313D3F8004944F08044C3F80049A0
:1029E400019B01330193019C42F210739C42DBD89A
:1029F4000B7802EB4313D3F80039002BF0DB0020F3
:102A0400D2E7D3F8000B40F00060C3F8000B0B785A
:102A140002EB4313D3F8000B40F08040C3F8000BE3
:102A2400019B01330193019842F21073984208D834
:102A34000B7802EB4313D3F8003B002BF0DB0020B0
:102A4400B2E70120B0E710B59DF8084084B903331C
:102A54004FEA930E4FF0000C08E000EB023303F54D
:102A6400805351F8044B1C600CF1010CF445F4D371
:102A7400002010BDF0B583B00B784C78012C31D018
:102A840000EB431303F5306CDCF810406FF31204D1
:102A9400CCF81040DCF810406FF3DC44CCF8104064
:102AA4008C69002C40F0C380DCF81040CD68C5F37D
:102AB40012052C43CCF81040DCF8104044F40024F8
:102AC400CCF81040012A00F0CC800A79012A00F0E9
:102AD400CF80D3F8002B42F00442C3F8002B00202F
:102AE40003B0F0BD8C6974BB00EB4314D4F81059E7
:102AF4006FF3DC45C4F81059D4F8105945F4002597
:102B0400C4F81059D4F810596FF31205C4F81059C9
:102B1400012A4AD000EB4313D3F8004944F004449B
:102B2400C3F800490C79012C68D08B69002BD6D0EE
:102B3400D0F83438097801F00F0101228A40134398
:102B4400C0F83438CBE700EB4314D4F810596FF3D2
:102B54001205C4F81059D4F810596FF3DC45C4F8C1
:102B64001059D4F810698D69CF683D44013DB5FB17
:102B7400F7F5494F07EAC5453543C4F81059D4F869
:102B840010598E69C6F312063543C4F8105904F57A
:102B940010640D79012DBBD1256925F0C04525614F
:102BA400256945F000552561B2E74A691AB100EB81
:102BB4004314C4F814290A79012A08D000EB4313FA
:102BC400D3F8002942F00442C3F8002987E7D0F87B
:102BD400082812F4807F08D100EB4311D1F80029B2
:102BE40042F00052C1F80029E8E700EB4311D1F8A4
:102BF400002942F08052C1F80029DFE7D0F80848E4
:102C040014F4807F0CD1D3F8004944F00054C3F885
:102C1400004900920B8B0A780969FFF714FF5EE7FD
:102C2400D3F8004944F08054C3F80049F1E7CD6873
:102C34002C44013CB4FBF5F4A4B204FB05F5CD61CE
:102C4400DCF81050144E06EAC4442C43CCF810406F
:102C5400DCF81040CD69C5F312052C43CCF81040C4
:102C640030E70A69002A3FF430AFCCF814202CE78F
:102C7400D0F8082812F4807F06D1D3F8002B42F054
:102C84000052C3F8002B24E7D3F8002B42F0805203
:102C9400C3F8002B1DE700BF0000F81F10B58446E1
:102CA40008464FEA920E02F00302002305E00CF5F9
:102CB4008051096840F8041B01337345F7D37AB196
:102CC4000CF5805CDCF800400021CBB2DB0024FA78
:102CD40003F300F8013B0131013A92B2002AF4D126
:102CE40010BD0B784A78012A14D000EB4310D0F8B9
:102CF400002B002A06DB2BB1D0F8003B23F08043E5
:102D0400C0F8003BD0F8003B43F40013C0F8003B8C
:102D14000020704700EB4310D0F80029002A06DB9E
:102D24002BB1D0F8003923F08043C0F80039D0F833
:102D3400003943F40013C0F80039E9E70B784A7806
:102D4400012A0ED000EB4310D0F8003B23F400130B
:102D5400C0F8003B0B79023BDBB2012B15D90020F4
:102D6400704700EB4310D0F8003923F40013C0F887
:102D740000390B79023BDBB2012BF0D8D0F80039D3
:102D840043F08053C0F80039E9E7D0F8003B43F042
:102D94008053C0F8003BE2E7D0F8003823F4FE6328
:102DA400C0F80038D0F80038090101F4FE610B4383
:102DB400C0F8003800207047D0F8003E23F0030329
:102DC400C0F8003ED0F8043823F00203C0F80438F9
:102DD40000207047D0F8003E23F00303C0F8003E03
:102DE400D0F8043843F00203C0F8043800207047D8
:102DF4004269806910407047D0F8183800F50060C7
:102E0400C0691840000C7047D0F8183800F500600D
:102E1400C069184080B2704700EB4111D1F8082B0B
:102E240000F50060406910407047D0F81028D0F8D1
:102E3400343801F00F0C23FA0CF3DB01DBB213433B
:102E440000EB411000F5106080681840704740693D
:102E540000F00100704738B50546C36823F0C0434D
:102E6400C360012913D019BBC36843F08043C36016
:102E740000240120FDF708FC01342846FFF7E7FF92
:102E840008B1312CF5D9322C14D0002038BDC368D8
:102E940043F00053C36000240120FDF7F5FB013427
:102EA4002846FFF7D4FF0128EDD0312CF4D9EAE706
:102EB4000120EBE70120E9E7D0F800396FF30A03BA
:102EC400C0F80039D0F8043843F48073C0F80438EB
:102ED4000020704710B4046C154B9C4203D9D0F801
:102EE400003B002B16DB0024C0F8104BD0F8104B2D
:102EF40044F40024C0F8104BD0F8104B44F01804EC
:102F0400C0F8104BD0F8104B44F0C044C0F8104B3C
:102F1400012903D000205DF8044B7047C0F8142B3E
:102F2400D0F8003B43F08023C0F8003BF2E700BF39
:102F34000A30544F10B5D0F8D43203F1B00250F82F
:102F440022408CB100EB820043687BB194F800020C
:102F5400FF280DD09B6894F8012221469847FF234F
:102F640084F80032002010BD0320FCE70020FAE7BB
:102F74000020F8E70A2303800048704788000020F7
:102F8400F8B506460F4F8221384600F01EFC054670
:102F94000121384600F019FC04468121384600F02E
:102FA40014FC0DB11022AA711CB14022227100221E
:102FB400627118B1402202710022427143233380AE
:102FC4000048F8BD0C000020F8B506460F4F8221DA
:102FD400384600F0FAFB05460121384600F0F5FBBF
:102FE40004468121384600F0F0FB0DB11022AA718D
:102FF4001CB1402222710022627118B14022027178
:1030040000224271432333800048F8BD0C000020A5
:10301400F8B506460F4F8221384600F0D6FB054628
:103024000121384600F0D1FB04468121384600F0E6
:10303400CCFB0DB11022AA711CB100222271022214
:10304400627118B10022027102224271432333805B
:103054000048F8BD0C00002038B5D0F8D432B033A5
:1030640050F8235095B1044601F089F9C5F80C02D3
:10307400D4F8D432B03304EB83046368DB6805F519
:103084000371D5F804029847002038BD0320FCE7FB
:1030940038B5D0F8C852D0F8D432B03350F8234001
:1030A40084B301F00F0303EB830200EB8202926905
:1030B4004AB103EBC30C05EB8C05AD6CB2FBF5FC1C
:1030C40005FB1C2292B10023C4F81432D0F8D43288
:1030D400B03300EB830043681B69ABB10A4604F5C7
:1030E4000471D4F808029847002038BD03EB830329
:1030F40000EB830300249C612346224601F088F9F7
:103104002046F2E70320F0E70020EEE7F0B583B0B5
:10311400D0F8D43203F1B00250F8227000228DF8B6
:103124000720ADF80420002F7BD004460D46097813
:1031340011F0600634D0202E6CD1EA882AB311F045
:10314400800F07D16B7887F80032EA883F2A13D8BA
:10315400D2B212E0B03300EB83035B689B6839465C
:1031640068789847EA88072A28BF07223946204604
:1031740000F0DCFE002651E0402287F801223946A7
:10318400204600F0E8FE002648E0B03300EB83035D
:103194005B689B68002229466878984700263DE0D2
:1031A4006F780B2F31D8DFE807F006393030303034
:1031B40030303030162690F89C32DBB2032B04D02A
:1031C400294600F03FFB032628E0022201A900F073
:1031D400ADFE3E4622E090F89C32DBB2032B04D0D5
:1031E400294600F02FFB032618E001220DF1070108
:1031F40000F09CFE12E090F89C32DBB2032B0DD061
:10320400294600F01FFB032608E0294600F01AFBBC
:10321400032603E0294600F015FB0326304603B0DD
:10322400F0BD0326FAE738B50446812101F0D0F851
:10323400002525870121204601F0CAF8A4F8785119
:103244008221204601F0C4F8A4F84C50A4F84E5052
:10325400D4F8D43203F1B00254F822209AB1B03336
:1032640004EB83035B685B689847D4F8D432B033CB
:1032740054F8230001F08EF8D4F8D432B03344F873
:103284002350C4F8BC52002038BD70B504464FF436
:10329400077001F07BF8002849D005464FF4077207
:1032A400002101F0EEF8D4F8D432B03344F82350BE
:1032B400C4F8BC52237C002B41D14FF4007302228A
:1032C4008121204601F079F8012626874FF4007306
:1032D40002223146204601F070F8A4F878611023E8
:1032E400A4F84E30082303228221204601F065F819
:1032F4000123A4F84C300026C5F80462D4F8D43273
:10330400B03304EB83035B681B689847C5F8146209
:10331400C5F81862D5F8042262B3257C1DBB4FF4AE
:1033240000730121204601F07BF8284670BDD4F8D3
:10333400D432B033002244F823200225F5E7402399
:1033440002228121204601F038F8012626874023F5
:1033540002223146204601F030F8A4F878611023A7
:10336400A4F84E30BEE740230121204601F058F86E
:103374000025DAE70225D8E739B1D0F8D432B033E2
:1033840000EB830041600020704703207047D0F8B1
:10339400D432B03350F823302BB1C3F80812C3F839
:1033A40010220020704703207047D0F8D432B03385
:1033B40050F823301BB1C3F80412002070470320D7
:1033C400704710B5D0F8D432B03350F8232092B1FE
:1033D400047C44B94FF40073D2F80422012101F0B3
:1033E4001FF8204610BD4023D2F80422012101F029
:1033F40017F80024F5E70324F3E798B108B503466A
:103404000020C3F8B802C3F8C402C3F8D00209B15B
:10341400C3F8B412012183F89C121A70184600F004
:1034240063FF08BD0320704710B582B00023ADF8D8
:10343400063089B10446C0F8B812CB6A23B10DF145
:1034440006009847C4F8D002D4F8D8320133C4F83F
:10345400D832002002B010BD0320FBE708B500F00D
:10346400A4FF08BD08B5D0F8B83213B11B6898475B
:1034740008BD0020FCE708B5D0F8B8325B6898476F
:1034840000B908BD0320FCE738B5044600F2AA25BC
:10349400284600F0C3F90123C4F89432B4F8B032DA
:1034A400C4F8983294F8AA1201F01F03012B07D034
:1034B400022B0AD073B92946204600F085FB38BD9B
:1034C4002946204600F0BBFBF9E72946204600F0D8
:1034D400F8FBF4E701F08001204600F081FFEEE7FD
:1034E400F8B50446012380F89C320023C0F89432D6
:1034F4004360C0F8A43280F8A032D0F8B832DBB10F
:103504005B68DBB1002198470746C8B94023002215
:103514001146204600F051FF0126A4F864614025BD
:10352400C4F860512B4600228021204600F045FF5C
:10353400A68425623846F8BD0027E7E70027E5E7BB
:103544000327E3E701740020704790F89C32DBB254
:1035540080F89D32042380F89C320020704790F854
:103564009C32DBB2042B01D00020704790F89D32CE
:10357400DBB280F89C32F7E708B590F89C32DBB2F6
:10358400032B01D0002008BDD0F8B832002BF9D0AD
:10359400DB69002BF6D09847F4E708B5D0F8D432AD
:1035A400AE3350F823205AB190F89C32DBB2032B8F
:1035B40001D0002008BD136A23B198470020F9E721
:1035C4000320F7E70020F5E708B5D0F8D432AE338E
:1035D40050F823205AB190F89C32DBB2032B01D06F
:1035E400002008BD536A23B198470020F9E703205F
:1035F400F7E70020F5E70020704708B5012380F8BD
:103604009C32D0F8B83223B15B680179984710B97D
:1036140008BD0020FCE70320FAE7002070470020E3
:10362400704738B504460D46002942D11346D0F8F8
:103634009422032A01D0084638BDD0F85C11D0F892
:103644006021914209D890F8AA3203F01F03012B9C
:103654000ED0022B1BD028460FE0891AC0F85C114B
:103664008A4228BF0A46194600F084FC2846E3E74C
:1036740090F8AE12FFF7D1FF20B994F89C32DBB278
:10368400032B09D0204600F07DFC2846D4E790F8AF
:10369400AE12FFF7C4FFEFE700F1AE0354F8233096
:1036A4001A69002AEED0C4F8D4021B692046984750
:1036B400E8E701F07F01FFF7B2FF90B994F89C327C
:1036C400DBB2032BB8D100F1AE0354F823309A696E
:1036D400002AB1D0C4F8D4029B69294620469847F1
:1036E400AAE70020A8E738B504460D4600294BD1C7
:1036F4001346D0F89422022A07D094F8A00218B1F5
:10370400002384F8A032284638BDC269016A8A427F
:103714000ED88A4218D094F89C32DBB2032B27D0FF
:103724008021204600F05CFE204600F036FCE4E7F1
:10373400521AC261194600F006FC00231A461946C3
:10374400204600F06DFED8E783699942E3D8D0F8AB
:1037540098229342DFD20022114600F0F4FB0021AC
:10376400C4F898120B460A46204600F059FEC4E7F6
:10377400D4F8B832DA68002AD2D00022C4F8D422AD
:10378400DB6820469847CBE741F08001FFF747FF0D
:1037940090B994F89C32DBB2032BB5D100F1AE039F
:1037A40054F823305A69002AAED0C4F8D4025B69B5
:1037B400294620469847A7E70020A5E70B8802780A
:1037C40013440B80037818447047428803789A4264
:1037D40018D930B583B004460D46ADF80630638879
:1037E400BDF806209A420AD20DF10601FFF7E6FF62
:1037F4004378052BF3D18378AB42F0D100E000206D
:1038040003B030BD002070470346002002E00130C1
:10381400C0B201331A78002AF9D170470B780370CB
:103824004B7843708B78CA7843EA022343800B7940
:103834004A7943EA022383808B79CA7943EA0223D3
:10384400C380704710B50446802100F0C9FD0021F3
:10385400204600F0C5FD10BD30B583B004460D46CA
:103864000023ADF806304A88130A013B062B00F208
:10387400AB80DFE803F0041F33A9A98D9A00D0F8C8
:10388400B4321B680DF10601007C9847EA88002ACF
:1038940000F0A380BDF80630002B00F099809A4216
:1038A40028BF1A46ADF806200146204600F03EFB2C
:1038B40003B030BD037C43B9D0F8B8329B6A0DF134
:1038C4000600984702234370E0E7D0F8B832DB6A79
:1038D4000DF10600984702234370D7E7D2B2052AB8
:1038E40052D8DFE802F003101D2A3744D0F8B4326E
:1038F4005B6823B10DF10601007C9847C6E72946B1
:10390400FFF7A0FFD4E7D0F8B4329B6823B10DF1E0
:103914000601007C9847B9E72946FFF793FFC7E7FC
:10392400D0F8B432DB6823B10DF10601007C98476E
:10393400ACE72946FFF786FFBAE7D0F8B4321B6933
:1039440023B10DF10601007C98479FE72946FFF754
:1039540079FFADE7D0F8B4325B6923B10DF106010C
:10396400007C984792E72946FFF76CFFA0E7D0F860
:10397400B4329B6923B10DF10601007C984785E7B9
:103984002946FFF75FFF93E72946FFF75BFF8FE7C1
:10399400037C33B9D0F8B8325B6B0DF1060098475D
:1039A40074E72946FFF74EFF82E7037C43B9D0F85A
:1039B400B8321B6B0DF1060098470723437065E787
:1039C4002946FFF73FFF73E72946FFF73BFF6FE701
:1039D40029462046FFF736FF6AE7204600F0D2FA70
:1039E40066E738B504468B88FBB9CB88EBB94B88BE
:1039F4007F2B1AD803F07F0590F89C32DBB2032B9F
:103A04000CD080F89E52294600F0FAFC204600F0C3
:103A1400B9FA35B1022384F89C3209E0FFF712FFAA
:103A240006E0012384F89C3202E02046FFF70AFFF7
:103A340038BD000070B504460E468D782F4B1D70BE
:103A4400012D10D890F89C32DBB2022B0FD0032B3F
:103A540026D0FFF7F7FE294B19782046FFF70BFD18
:103A64000325284670BDFFF7EDFE0325F9E7A5B150
:103A740045602946FFF7F6FC054638B13146204635
:103A8400FFF7E0FE022384F89C32EAE7204600F0C8
:103A940079FA032384F89C32E3E700F073FAE0E751
:103AA400CDB141688D4225D0C9B2FFF7E4FC134B78
:103AB400197861602046FFF7D5FC0546B0B1314660
:103AC4002046FFF7BFFE21792046FFF7D4FC0223EE
:103AD40084F89C32C5E7022380F89C32456029466D
:103AE400FFF7C9FC204600F04DFABAE7204600F083
:103AF40049FAB6E700F046FA0025B2E7FC010020D7
:103B040008B5CB88012B0BD190F89C32DBB2022B89
:103B140009D9032B11D10122011D00F007FA01E09C
:103B2400FFF790FE08BD5BB23BB10146002341F8AC
:103B3400083F012200F0FAF9F4E7FFF783FEF1E70A
:103B440008B590F89C32013B022B12D8CB88022B8B
:103B54000CD10123C360D0F8A4320BB10323C3609A
:103B6400022200F10C0100F0E1F908BDFFF76AFE42
:103B7400FBE7FFF767FEF8E708B54B88012B04D095
:103B8400022B07D0FFF75EFE08BDC0F8A43200F098
:103B9400F9F9F9E78B881B0A80F8A03200F0F2F9F2
:103BA400F2E708B590F89C32013B022B09D84B8808
:103BB400012B00D008BD0023C0F8A43200F0E2F9C4
:103BC400F8E7FFF73FFEF5E738B50C7804F060043A
:103BD400202C06D0402C04D06CB1FFF733FE002417
:103BE40007E0D0F8D432AE3350F823309B689847BE
:103BF4000446204638BD4D78092D1DD8DFE805F070
:103C040012191C161C08051C0F0BFFF725FEF0E704
:103C1400FFF7E7FEEDE7FFF70DFF0446E9E7FFF7DF
:103C24006FFFE6E7FFF78CFF2C46E2E7FFF7A4FF00
:103C3400DFE7FFF7B6FFDCE7FFF704FED9E770B56F
:103C440005460C460B7803F06003202B07D0402B6D
:103C540005D023B1FFF7F6FD0026304670BD95F878
:103C64009C32013B022B26D82179012905D9214612
:103C74002846FFF7E7FD0026EFE72846FFF7CDFCCF
:103C840068B900F1AE0255F82220916889B1C5F8EF
:103C9400D4029368214628469847064600E0032646
:103CA400E388002BD9D1002ED7D1284600F06AF939
:103CB400D3E70326F4E721462846FFF7C3FD002691
:103CC400CBE72DE9F04106460D468B88DFB20C7830
:103CD40004F06004202C08D0402C06D0DCB1FFF79F
:103CE400B1FD00242046BDE8F08139463046FFF797
:103CF40096FC0446002840F0F880C6F8D40200F18F
:103D0400AE0356F823309B68002BEBD0294630468F
:103D140098470446E6E791F80180B8F1010F31D0E5
:103D2400B8F1030F05D0B8F1000F67D0FFF78AFD93
:103D3400D8E790F89C32DBB2022B04D0032B12D0CC
:103D4400FFF780FDCEE70FB1802F04D1294630461E
:103D5400FFF778FDC6E7394600F042FB8021304684
:103D640000F03EFBBEE74B8823B91FB1802F01D082
:103D7400CB881BB1304600F005F9B3E7394600F0B3
:103D84002FFBF7E790F89C32DBB2022B04D0032B15
:103D940012D0FFF757FDA5E70FB1802F04D12946B4
:103DA4003046FFF74FFD9DE7394600F019FB8021AF
:103DB400304600F015FB95E74B88002B92D117F0A5
:103DC4007F0F17D1304600F0DDF839463046FFF753
:103DD40026FC002886D1C6F8D40200F1AE0256F8BB
:103DE40022209268002A00F08280294630469047BB
:103DF400044677E7394600F0FBFAE3E790F89C22A3
:103E0400D2B2022A05D0032A27D0FFF71BFD44466D
:103E140068E70FB1802F13D113F0800F14D107F08E
:103E24007F0707EB8707B90001F5A8713144043116
:103E340000230B600222304600F078F8444651E734
:103E4400FFF700FD44464DE707F07F0707EB8707C0
:103E5400B900103131440431EAE75BB2002B1FDBB7
:103E640007F00F0202EB820200EB8202B2F8642137
:103E74001AB3002B25DB07F07F0303EB83039C00BD
:103E840004F5A874344404340FB1802F22D10023E4
:103E9400236002222146304600F048F8444621E7D8
:103EA40007F00F0202EB820200EB8202928C002ADE
:103EB400DFD1FFF7C7FC444614E7FFF7C3FC4446D1
:103EC40010E707F07F0303EB83039C0010343444B2
:103ED4000434D9E73946304600F03AFA10B10123E8
:103EE4002360D6E700232360D3E70024FAE60446E0
:103EF400F8E6D0B170B50D4616460446FFF784FCCB
:103F0400431C5B009BB233802B7003236B70022332
:103F140007E0EA5401345A1CD2B20021A9540233F6
:103F2400DBB22278002AF4D170BD704708B513467D
:103F34000222C0F894228361C3610A46002100F082
:103F440067FA002008BD08B513460A46002100F0B0
:103F54005FFA002008BD08B513460322C0F8942276
:103F6400C0F85831C0F85C310A46002100F058FA14
:103F7400002008BD08B513460A46002100F050FA97
:103F8400002008BD08B50422C0F8942200231A4674
:103F9400194600F03DFA002008BD08B50522C0F816
:103FA400942200231A46194600F03AFA002008BD6C
:103FB40008B500220F491048FFF71FFA70B90F49DE
:103FC4000D48FFF731FA60B90D490B48FFF7D4F9F2
:103FD40050B90948FFF742FA48B908BDFCF788F917
:103FE400EDE7FCF785F9EFE7FCF782F9F1E7FCF779
:103FF4007FF9F2E7DC0000200002002050000020DE
:104004009400002000207047002070470020704773
:1040140010B50146044C2046FFF7C7F92046FFF7C8
:10402400D0F9002010BD00BF0002002010B5064CDE
:10403400002206492046FFF7AAF905492046FFF762
:10404400B4F9002010BD00BF00020020DC040020F1
:10405400DC08002012230B8000487047C8000020B1
:1040640004230B8000487047C400002000239342BF
:104074001ED200B510E00CF1370C01F813C000019A
:104084004FEA430C0CF1010C4FF0000E01F80CE068
:104094000133DBB2934209D24FEA107CB0F1204FD6
:1040A400E9D20CF1300C01F813C0E8E75DF804FB29
:1040B4007047000038B50B4BD3F8100AD3F8144AF4
:1040C400D3F8183AC01800D138BD074D0822294644
:1040D400FFF7CCFF042205F110012046FFF7C6FFCD
:1040E400F2E700BF0070FF1FAA00002008B51A23E2
:1040F4000B80FFF7DFFF014808BD00BFA8000020C8
:1041040008B50A4628B905490548FFF7F2FE0348F1
:1041140008BD02490248FFF7ECFEF8E7DC0C00207A
:10412400CC47000810B50A46034C21460348FFF764
:10413400E0FE204610BD00BFDC0C0020E447000870
:1041440008B50A4628B905490548FFF7D2FE0348D1
:1041540008BD02490248FFF7CCFEF8E7DC0C00205A
:10416400F847000808B50A4628B905490548FFF785
:10417400C0FE034808BD02490248FFF7BAFEF8E74B
:10418400DC0C00200448000830B589B000230393F8
:1041940004930593069307930368B3F1A04F01D0EA
:1041A40009B030BD00250195164C236B43F0010383
:1041B4002363236B03F001030193019B4FF4C0536A
:1041C400039302230493032306930A23079303A967
:1041D4000D48FCF7E5FA636B43F0800363630295D3
:1041E400636C43F480436364636C03F4804302931D
:1041F400029B2A4629464320FCF7A0FA4320FCF7F9
:10420400ADFACDE7003802400000024008B500F2E4
:10421400C441D0F80805FFF737F908BD08B501EB2C
:10422400C10300EB8303D3F88C22D0F80805FFF711
:10423400F8F908BD08B501EBC10300EB8303DA6CA0
:10424400D0F80805FFF74FFA08BD08B5D0F80805FF
:10425400FFF792F908BD10B50446C368022B09D1D3
:104264000121D4F80805FFF76DF9D4F80805FFF724
:1042740037F910BDFCF73CF8F2E7000010B504462E
:10428400D0F80805FFF761F92268D2F8003E43F040
:104294000103C2F8003E236A23B1034A136943F0C1
:1042A4000603136110BD00BF00ED00E008B5D0F8AF
:1042B4000805FFF754F908BD08B5D0F80805FFF75D
:1042C40083F908BD08B5D0F80805FFF766F908BDFD
:1042D40008B5D0F80805FFF78EF908BD08B5D0F881
:1042E4000805FFF78AF908BD02780AB10020704773
:1042F40010B503461548C0F80835C3F8C8024FF096
:10430400A0430360042343600222C26000230361CC
:104314008261C36103624362C3620363FCF778FD95
:1043240080B90A4C80212046FDF770FB4022002111
:104334002046FDF745FB802201212046FDF740FB86
:10434400002010BDFBF7D4FFEBE700BFFC100020FA
:10435400D0F8C83211F0800F08D101F07F0101EBD1
:10436400C10103EB810393F87E02704701F07F01E2
:1043740001EBC10103EB810393F83E00704708B5DC
:10438400D0F8C802FCF767FF08BD0000004870477A
:10439400DC0E00207047032805D8DFE800F0050490
:1043A4000205012070470320704708B5D0F8C80201
:1043B400FCF7C5FDFFF7EFFF08BD08B594461A46A4
:1043C4006346D0F8C802FCF799FEFFF7E4FF08BD86
:1043D40008B5D0F8C802FCF7D6FEFFF7DCFF08BD2D
:1043E40008B5D0F8C802FCF76EFFFFF7D4FF08BD8C
:1043F40008B5D0F8C802FCF7AAFFFFF7CCFF08BD48
:1044040008B5D0F8C802FCF765FEFFF7C4FF08BD85
:1044140008B5D0F8C802FCF727FFFFF7BCFF08BDBA
:1044240008B5D0F8C802FCF7E7FEFFF7B4FF08BDF3
:10443400DFF834D00D480E490E4A002302E0D45868
:10444400C4500433C4188C42F9D30B4A0B4C0023D8
:1044540001E013600432A242FBD3FCF7B9F800F088
:1044640019F8FBF7E1FF704700000120000000206D
:10447400F800002024480008F80000200816002056
:10448400FEE702440346934200D1704703F8011B40
:10449400F9E7000070B50D4D0D4C641BA410002607
:1044A400A64209D10B4D0C4C00F076F9641BA41004
:1044B4000026A64205D170BD55F8043B9847013645
:1044C400EEE755F8043B98470136F2E71C4800082C
:1044D4001C4800081C480008204800082DE9F04743
:1044E400089D0E4604460F46002B4AD194468C453F
:1044F400B2FA82F260D942B1C2F12003974020FAA5
:1045040003F30CFA02FC1F4394404FEA1C4E1FFABB
:104514008CF6B7FBFEF1230C0EFB117743EA07433D
:1045240001FB06F098420AD91CEB030301F1FF37A3
:1045340080F01581984240F21281023963441B1ABB
:10454400A4B2B3FBFEF00EFB103344EA034400FBB9
:1045540006F6A6420AD91CEB040400F1FF3380F0EE
:104564000081A64240F2FD806444023840EA0140E2
:10457400A41B00211DB1D4400023C5E90043BDE8BC
:10458400F0878B4205D90DB1C5E900010021084629
:10459400F5E7B3FA83F1002946D1B34202D382424C
:1045A40000F2F580841A66EB030201201746002D01
:1045B400E5D0C5E90047E2E7002A40F09380A1EB8B
:1045C4000C034FEA1C471FFA8CFE0121B3FBF7F6DC
:1045D40007FB1630230C43EA00430EFB06F0984217
:1045E40008D91CEB030306F1FF3802D2984200F20B
:1045F400D08046461B1AA4B2B3FBF7F007FB103376
:1046040044EA03440EFB00FEA64508D91CEB04044F
:1046140000F1FF3302D2A64500F2B6801846A4EB9F
:104624000E0440EA0640A5E7C1F120078B4022FAB8
:1046340007FC4CEA030C06FA01FE20FA07F426FAFA
:1046440007F344EA0E0400FA01F84FEA1C404FEA6B
:104654001449B3FBF0FE1FFA8CF600FB1E3349EA43
:1046640003430EFB06F9994502FA01F20BD91CEB40
:1046740003030EF1FF3A80F08580994540F2828071
:10468400AEF1020E6344A3EB0909A4B2B9FBF0F343
:1046940000FB139944EA094403FB06F6A64208D931
:1046A4001CEB040403F1FF3068D2A64266D9023B36
:1046B400644443EA0E40A41BA0FB02E6B4427346E2
:1046C400B14652D34FD05DB1B8EB030264EB090499
:1046D40004FA07F722FA01F31F43CC40C5E900743A
:1046E40000214CE7C2F1200120FA01F30CFA02FC8C
:1046F40026FA01F1964033434FEA1C471FFA8CFE19
:10470400B1FBF7F007FB1016190C41EA064100FB58
:104714000EF68E4204FA02F408D91CEB010100F1F2
:10472400FF382DD28E422BD902386144891B9BB2AB
:10473400B1FBF7F607FB161143EA014306FB0EF142
:10474400994208D91CEB030306F1FF3814D29942AD
:1047540012D9023E63445B1A46EA004136E7394601
:10476400EDE6184602E7F045ADD2BEEB020366EB78
:104774000C060138B146A6E74646ECE7034698E73F
:104784004046D3E7D6467EE76444023847E7084606
:104794000DE7023E63442DE7F8B500BFF8BC08BC42
:1047A4009E467047F8B500BFF8BC08BC9E467047EB
:1047B40000000000010203040000000000000000EB
:1047C400010203040607080953544D333220566985
:1047D400727475616C20436F6D506F7274000000C9
:1047E40053544D6963726F656C656374726F6E695F
:1047F4006373000043444320436F6E66696700009F
:1048040043444320496E7465726661636500000029
:08481400CCFCFF7F0100000055
:04481C00ED010008A2
:04482000C9010008C2
:104824000024F4000100000010000000090243000D
:10483400020100C032090400000102020100052443
:1048440000100105240100010424020205240600CD
:10485400010705820308001009040100020A000090
:104864000007050102400000070581024000000026
:104874008F3200082B3200081131000800000000BC
:10488400392F0008953000085D3000080000000052
:10489400000000000000000015300008CD2F0008C3
:1048A400852F0008792F00080A0600020000004046
:1048B4000100000031400008094000080D400008D4
:1048C40015400008114000081A0300000000000011
:1048D40000000000000000000000000000000000D4
:1048E4000000000004030904120100020202004057
:1048F40083044057000201020301000059400008EC
:10490400654000082941000805410008F1400008FD
:0849140045410008694100085B
:040000050800443576
:00000001FF
